{
  "_format": "hh-sol-artifact-1",
  "contractName": "PNFT",
  "sourceName": "contracts/NFT.sol",
  "abi": [
    {
      "inputs": [
        {
          "internalType": "address",
          "name": "marketplaceAddress",
          "type": "address"
        }
      ],
      "stateMutability": "nonpayable",
      "type": "constructor"
    },
    {
      "anonymous": false,
      "inputs": [
        {
          "indexed": true,
          "internalType": "address",
          "name": "owner",
          "type": "address"
        },
        {
          "indexed": true,
          "internalType": "address",
          "name": "approved",
          "type": "address"
        },
        {
          "indexed": true,
          "internalType": "uint256",
          "name": "tokenId",
          "type": "uint256"
        }
      ],
      "name": "Approval",
      "type": "event"
    },
    {
      "anonymous": false,
      "inputs": [
        {
          "indexed": true,
          "internalType": "address",
          "name": "owner",
          "type": "address"
        },
        {
          "indexed": true,
          "internalType": "address",
          "name": "operator",
          "type": "address"
        },
        {
          "indexed": false,
          "internalType": "bool",
          "name": "approved",
          "type": "bool"
        }
      ],
      "name": "ApprovalForAll",
      "type": "event"
    },
    {
      "anonymous": false,
      "inputs": [
        {
          "indexed": true,
          "internalType": "address",
          "name": "from",
          "type": "address"
        },
        {
          "indexed": true,
          "internalType": "address",
          "name": "to",
          "type": "address"
        },
        {
          "indexed": true,
          "internalType": "uint256",
          "name": "tokenId",
          "type": "uint256"
        }
      ],
      "name": "Transfer",
      "type": "event"
    },
    {
      "inputs": [
        {
          "internalType": "address",
          "name": "to",
          "type": "address"
        },
        {
          "internalType": "uint256",
          "name": "tokenId",
          "type": "uint256"
        }
      ],
      "name": "approve",
      "outputs": [],
      "stateMutability": "nonpayable",
      "type": "function"
    },
    {
      "inputs": [
        {
          "internalType": "address",
          "name": "owner",
          "type": "address"
        }
      ],
      "name": "balanceOf",
      "outputs": [
        {
          "internalType": "uint256",
          "name": "",
          "type": "uint256"
        }
      ],
      "stateMutability": "view",
      "type": "function"
    },
    {
      "inputs": [
        {
          "internalType": "string",
          "name": "tokenURI",
          "type": "string"
        }
      ],
      "name": "createToken",
      "outputs": [
        {
          "internalType": "uint256",
          "name": "",
          "type": "uint256"
        }
      ],
      "stateMutability": "nonpayable",
      "type": "function"
    },
    {
      "inputs": [
        {
          "internalType": "uint256",
          "name": "tokenId",
          "type": "uint256"
        }
      ],
      "name": "getApproved",
      "outputs": [
        {
          "internalType": "address",
          "name": "",
          "type": "address"
        }
      ],
      "stateMutability": "view",
      "type": "function"
    },
    {
      "inputs": [
        {
          "internalType": "address",
          "name": "owner",
          "type": "address"
        },
        {
          "internalType": "address",
          "name": "operator",
          "type": "address"
        }
      ],
      "name": "isApprovedForAll",
      "outputs": [
        {
          "internalType": "bool",
          "name": "",
          "type": "bool"
        }
      ],
      "stateMutability": "view",
      "type": "function"
    },
    {
      "inputs": [],
      "name": "name",
      "outputs": [
        {
          "internalType": "string",
          "name": "",
          "type": "string"
        }
      ],
      "stateMutability": "view",
      "type": "function"
    },
    {
      "inputs": [
        {
          "internalType": "uint256",
          "name": "tokenId",
          "type": "uint256"
        }
      ],
      "name": "ownerOf",
      "outputs": [
        {
          "internalType": "address",
          "name": "",
          "type": "address"
        }
      ],
      "stateMutability": "view",
      "type": "function"
    },
    {
      "inputs": [
        {
          "internalType": "address",
          "name": "from",
          "type": "address"
        },
        {
          "internalType": "address",
          "name": "to",
          "type": "address"
        },
        {
          "internalType": "uint256",
          "name": "tokenId",
          "type": "uint256"
        }
      ],
      "name": "safeTransferFrom",
      "outputs": [],
      "stateMutability": "nonpayable",
      "type": "function"
    },
    {
      "inputs": [
        {
          "internalType": "address",
          "name": "from",
          "type": "address"
        },
        {
          "internalType": "address",
          "name": "to",
          "type": "address"
        },
        {
          "internalType": "uint256",
          "name": "tokenId",
          "type": "uint256"
        },
        {
          "internalType": "bytes",
          "name": "_data",
          "type": "bytes"
        }
      ],
      "name": "safeTransferFrom",
      "outputs": [],
      "stateMutability": "nonpayable",
      "type": "function"
    },
    {
      "inputs": [
        {
          "internalType": "address",
          "name": "operator",
          "type": "address"
        },
        {
          "internalType": "bool",
          "name": "approved",
          "type": "bool"
        }
      ],
      "name": "setApprovalForAll",
      "outputs": [],
      "stateMutability": "nonpayable",
      "type": "function"
    },
    {
      "inputs": [
        {
          "internalType": "bytes4",
          "name": "interfaceId",
          "type": "bytes4"
        }
      ],
      "name": "supportsInterface",
      "outputs": [
        {
          "internalType": "bool",
          "name": "",
          "type": "bool"
        }
      ],
      "stateMutability": "view",
      "type": "function"
    },
    {
      "inputs": [],
      "name": "symbol",
      "outputs": [
        {
          "internalType": "string",
          "name": "",
          "type": "string"
        }
      ],
      "stateMutability": "view",
      "type": "function"
    },
    {
      "inputs": [
        {
          "internalType": "uint256",
          "name": "tokenId",
          "type": "uint256"
        }
      ],
      "name": "tokenURI",
      "outputs": [
        {
          "internalType": "string",
          "name": "",
          "type": "string"
        }
      ],
      "stateMutability": "view",
      "type": "function"
    },
    {
      "inputs": [
        {
          "internalType": "address",
          "name": "from",
          "type": "address"
        },
        {
          "internalType": "address",
          "name": "to",
          "type": "address"
        },
        {
          "internalType": "uint256",
          "name": "tokenId",
          "type": "uint256"
        }
      ],
      "name": "transferFrom",
      "outputs": [],
      "stateMutability": "nonpayable",
      "type": "function"
    },
    {
      "inputs": [
        {
          "internalType": "string",
          "name": "DOMAIN_SALT",
          "type": "string"
        }
      ],
      "name": "uniqueIdentifier",
      "outputs": [
        {
          "internalType": "string",
          "name": "",
          "type": "string"
        }
      ],
      "stateMutability": "view",
      "type": "function"
    }
  ],
  "bytecode": "0x60806040523480156200001157600080fd5b50604051620018db380380620018db833981016040819052620000349162000167565b6040805180820182526009815268141d5c1c1e4813919560ba1b6020808301918252835180850190945260048452631413919560e21b9084015281519192916200008191600091620000c1565b50805162000097906001906020840190620000c1565b5050600880546001600160a01b0319166001600160a01b03939093169290921790915550620001d4565b828054620000cf9062000197565b90600052602060002090601f016020900481019282620000f357600085556200013e565b82601f106200010e57805160ff19168380011785556200013e565b828001600101855582156200013e579182015b828111156200013e57825182559160200191906001019062000121565b506200014c92915062000150565b5090565b5b808211156200014c576000815560010162000151565b60006020828403121562000179578081fd5b81516001600160a01b038116811462000190578182fd5b9392505050565b600181811c90821680620001ac57607f821691505b60208210811415620001ce57634e487b7160e01b600052602260045260246000fd5b50919050565b6116f780620001e46000396000f3fe608060405234801561001057600080fd5b50600436106100f55760003560e01c80636352211e11610097578063a22cb46511610066578063a22cb465146101fd578063b88d4fde14610210578063c87b56dd14610223578063e985e9c514610236576100f5565b80636352211e146101be57806370a08231146101d1578063721952e8146101e457806395d89b41146101f5576100f5565b8063095ea7b3116100d3578063095ea7b31461016257806323b872dd1461017757806342842e0e1461018a57806345576f941461019d576100f5565b806301ffc9a7146100fa57806306fdde0314610122578063081812fc14610137575b600080fd5b61010d6101083660046113a9565b610272565b60405190151581526020015b60405180910390f35b61012a6102c6565b60405161011991906114d7565b61014a610145366004611427565b610358565b6040516001600160a01b039091168152602001610119565b610175610170366004611380565b6103e5565b005b610175610185366004611292565b6104fb565b610175610198366004611292565b61052c565b6101b06101ab3660046113e1565b610547565b604051908152602001610119565b61014a6101cc366004611427565b61058f565b6101b06101df366004611246565b610606565b61012a6101f23660046113e1565b90565b61012a61068d565b61017561020b366004611346565b61069c565b61017561021e3660046112cd565b61076e565b61012a610231366004611427565b6107a6565b61010d610244366004611260565b6001600160a01b03918216600090815260056020908152604080832093909416825291909152205460ff1690565b60006001600160e01b031982166380ac58cd60e01b14806102a357506001600160e01b03198216635b5e139f60e01b145b806102be57506301ffc9a760e01b6001600160e01b03198316145b90505b919050565b6060600080546102d5906115fc565b80601f0160208091040260200160405190810160405280929190818152602001828054610301906115fc565b801561034e5780601f106103235761010080835404028352916020019161034e565b820191906000526020600020905b81548152906001019060200180831161033157829003601f168201915b5050505050905090565b60006103638261091e565b6103c95760405162461bcd60e51b815260206004820152602c60248201527f4552433732313a20617070726f76656420717565727920666f72206e6f6e657860448201526b34b9ba32b73a103a37b5b2b760a11b60648201526084015b60405180910390fd5b506000908152600460205260409020546001600160a01b031690565b60006103f08261058f565b9050806001600160a01b0316836001600160a01b0316141561045e5760405162461bcd60e51b815260206004820152602160248201527f4552433732313a20617070726f76616c20746f2063757272656e74206f776e656044820152603960f91b60648201526084016103c0565b336001600160a01b038216148061047a575061047a8133610244565b6104ec5760405162461bcd60e51b815260206004820152603860248201527f4552433732313a20617070726f76652063616c6c6572206973206e6f74206f7760448201527f6e6572206e6f7220617070726f76656420666f7220616c6c000000000000000060648201526084016103c0565b6104f6838361093b565b505050565b61050533826109a9565b6105215760405162461bcd60e51b81526004016103c09061153c565b6104f6838383610a8f565b6104f68383836040518060200160405280600081525061076e565b6000610557600780546001019055565b600061056260075490565b905061056e3382610c2f565b6105788184610d62565b6008546102be906001600160a01b0316600161069c565b6000818152600260205260408120546001600160a01b0316806102be5760405162461bcd60e51b815260206004820152602960248201527f4552433732313a206f776e657220717565727920666f72206e6f6e657869737460448201526832b73a103a37b5b2b760b91b60648201526084016103c0565b60006001600160a01b0382166106715760405162461bcd60e51b815260206004820152602a60248201527f4552433732313a2062616c616e636520717565727920666f7220746865207a65604482015269726f206164647265737360b01b60648201526084016103c0565b506001600160a01b031660009081526003602052604090205490565b6060600180546102d5906115fc565b6001600160a01b0382163314156106f55760405162461bcd60e51b815260206004820152601960248201527f4552433732313a20617070726f766520746f2063616c6c65720000000000000060448201526064016103c0565b3360008181526005602090815260408083206001600160a01b0387168085529252909120805460ff1916841515179055906001600160a01b03167f17307eab39ab6107e8899845ad3d59bd9653f200f220920489ca2b5937696c3183604051610762911515815260200190565b60405180910390a35050565b61077833836109a9565b6107945760405162461bcd60e51b81526004016103c09061153c565b6107a084848484610ded565b50505050565b60606107b18261091e565b6108175760405162461bcd60e51b815260206004820152603160248201527f45524337323155524953746f726167653a2055524920717565727920666f72206044820152703737b732bc34b9ba32b73a103a37b5b2b760791b60648201526084016103c0565b60008281526006602052604081208054610830906115fc565b80601f016020809104026020016040519081016040528092919081815260200182805461085c906115fc565b80156108a95780601f1061087e576101008083540402835291602001916108a9565b820191906000526020600020905b81548152906001019060200180831161088c57829003601f168201915b5050505050905060006108c760408051602081019091526000815290565b90508051600014156108db575090506102c1565b81511561090d5780826040516020016108f592919061146b565b604051602081830303815290604052925050506102c1565b61091684610e20565b949350505050565b6000908152600260205260409020546001600160a01b0316151590565b600081815260046020526040902080546001600160a01b0319166001600160a01b03841690811790915581906109708261058f565b6001600160a01b03167f8c5be1e5ebec7d5bd14f71427d1e84f3dd0314c0f7b2291e5b200ac8c7c3b92560405160405180910390a45050565b60006109b48261091e565b610a155760405162461bcd60e51b815260206004820152602c60248201527f4552433732313a206f70657261746f7220717565727920666f72206e6f6e657860448201526b34b9ba32b73a103a37b5b2b760a11b60648201526084016103c0565b6000610a208361058f565b9050806001600160a01b0316846001600160a01b03161480610a5b5750836001600160a01b0316610a5084610358565b6001600160a01b0316145b8061091657506001600160a01b0380821660009081526005602090815260408083209388168352929052205460ff16610916565b826001600160a01b0316610aa28261058f565b6001600160a01b031614610b0a5760405162461bcd60e51b815260206004820152602960248201527f4552433732313a207472616e73666572206f6620746f6b656e2074686174206960448201526839903737ba1037bbb760b91b60648201526084016103c0565b6001600160a01b038216610b6c5760405162461bcd60e51b8152602060048201526024808201527f4552433732313a207472616e7366657220746f20746865207a65726f206164646044820152637265737360e01b60648201526084016103c0565b610b7760008261093b565b6001600160a01b0383166000908152600360205260408120805460019290610ba09084906115b9565b90915550506001600160a01b0382166000908152600360205260408120805460019290610bce90849061158d565b909155505060008181526002602052604080822080546001600160a01b0319166001600160a01b0386811691821790925591518493918716917fddf252ad1be2c89b69c2b068fc378daa952ba7f163c4a11628f55a4df523b3ef91a4505050565b6001600160a01b038216610c855760405162461bcd60e51b815260206004820181905260248201527f4552433732313a206d696e7420746f20746865207a65726f206164647265737360448201526064016103c0565b610c8e8161091e565b15610cdb5760405162461bcd60e51b815260206004820152601c60248201527f4552433732313a20746f6b656e20616c7265616479206d696e7465640000000060448201526064016103c0565b6001600160a01b0382166000908152600360205260408120805460019290610d0490849061158d565b909155505060008181526002602052604080822080546001600160a01b0319166001600160a01b03861690811790915590518392907fddf252ad1be2c89b69c2b068fc378daa952ba7f163c4a11628f55a4df523b3ef908290a45050565b610d6b8261091e565b610dce5760405162461bcd60e51b815260206004820152602e60248201527f45524337323155524953746f726167653a2055524920736574206f66206e6f6e60448201526d32bc34b9ba32b73a103a37b5b2b760911b60648201526084016103c0565b600082815260066020908152604090912082516104f692840190611120565b610df8848484610a8f565b610e0484848484610ef8565b6107a05760405162461bcd60e51b81526004016103c0906114ea565b6060610e2b8261091e565b610e8f5760405162461bcd60e51b815260206004820152602f60248201527f4552433732314d657461646174613a2055524920717565727920666f72206e6f60448201526e3732bc34b9ba32b73a103a37b5b2b760891b60648201526084016103c0565b6000610ea660408051602081019091526000815290565b90506000815111610ec65760405180602001604052806000815250610ef1565b80610ed084611005565b604051602001610ee192919061146b565b6040516020818303038152906040525b9392505050565b60006001600160a01b0384163b15610ffa57604051630a85bd0160e11b81526001600160a01b0385169063150b7a0290610f3c90339089908890889060040161149a565b602060405180830381600087803b158015610f5657600080fd5b505af1925050508015610f86575060408051601f3d908101601f19168201909252610f83918101906113c5565b60015b610fe0573d808015610fb4576040519150601f19603f3d011682016040523d82523d6000602084013e610fb9565b606091505b508051610fd85760405162461bcd60e51b81526004016103c0906114ea565b805181602001fd5b6001600160e01b031916630a85bd0160e11b149050610916565b506001949350505050565b60608161102a57506040805180820190915260018152600360fc1b60208201526102c1565b8160005b8115611054578061103e81611637565b915061104d9050600a836115a5565b915061102e565b60008167ffffffffffffffff81111561107d57634e487b7160e01b600052604160045260246000fd5b6040519080825280601f01601f1916602001820160405280156110a7576020820181803683370190505b5090505b8415610916576110bc6001836115b9565b91506110c9600a86611652565b6110d490603061158d565b60f81b8183815181106110f757634e487b7160e01b600052603260045260246000fd5b60200101906001600160f81b031916908160001a905350611119600a866115a5565b94506110ab565b82805461112c906115fc565b90600052602060002090601f01602090048101928261114e5760008555611194565b82601f1061116757805160ff1916838001178555611194565b82800160010185558215611194579182015b82811115611194578251825591602001919060010190611179565b506111a09291506111a4565b5090565b5b808211156111a057600081556001016111a5565b600067ffffffffffffffff808411156111d4576111d4611692565b604051601f8501601f19908116603f011681019082821181831017156111fc576111fc611692565b8160405280935085815286868601111561121557600080fd5b858560208301376000602087830101525050509392505050565b80356001600160a01b03811681146102c157600080fd5b600060208284031215611257578081fd5b610ef18261122f565b60008060408385031215611272578081fd5b61127b8361122f565b91506112896020840161122f565b90509250929050565b6000806000606084860312156112a6578081fd5b6112af8461122f565b92506112bd6020850161122f565b9150604084013590509250925092565b600080600080608085870312156112e2578081fd5b6112eb8561122f565b93506112f96020860161122f565b925060408501359150606085013567ffffffffffffffff81111561131b578182fd5b8501601f8101871361132b578182fd5b61133a878235602084016111b9565b91505092959194509250565b60008060408385031215611358578182fd5b6113618361122f565b915060208301358015158114611375578182fd5b809150509250929050565b60008060408385031215611392578182fd5b61139b8361122f565b946020939093013593505050565b6000602082840312156113ba578081fd5b8135610ef1816116a8565b6000602082840312156113d6578081fd5b8151610ef1816116a8565b6000602082840312156113f2578081fd5b813567ffffffffffffffff811115611408578182fd5b8201601f81018413611418578182fd5b610916848235602084016111b9565b600060208284031215611438578081fd5b5035919050565b600081518084526114578160208601602086016115d0565b601f01601f19169290920160200192915050565b6000835161147d8184602088016115d0565b8351908301906114918183602088016115d0565b01949350505050565b6001600160a01b03858116825284166020820152604081018390526080606082018190526000906114cd9083018461143f565b9695505050505050565b600060208252610ef1602083018461143f565b60208082526032908201527f4552433732313a207472616e7366657220746f206e6f6e20455243373231526560408201527131b2b4bb32b91034b6b83632b6b2b73a32b960711b606082015260800190565b60208082526031908201527f4552433732313a207472616e736665722063616c6c6572206973206e6f74206f6040820152701ddb995c881b9bdc88185c1c1c9bdd9959607a1b606082015260800190565b600082198211156115a0576115a0611666565b500190565b6000826115b4576115b461167c565b500490565b6000828210156115cb576115cb611666565b500390565b60005b838110156115eb5781810151838201526020016115d3565b838111156107a05750506000910152565b600181811c9082168061161057607f821691505b6020821081141561163157634e487b7160e01b600052602260045260246000fd5b50919050565b600060001982141561164b5761164b611666565b5060010190565b6000826116615761166161167c565b500690565b634e487b7160e01b600052601160045260246000fd5b634e487b7160e01b600052601260045260246000fd5b634e487b7160e01b600052604160045260246000fd5b6001600160e01b0319811681146116be57600080fd5b5056fea26469706673582212204321f34407790255c0ebc3d61a00924e20e521cbe396949afc8a54ebc6a9389d64736f6c63430008030033",
  "linkReferences": {},
  "deployedLinkReferences": {}
}