{
  "_format": "hh-sol-artifact-1",
  "contractName": "PuppyNFTMarket",
  "sourceName": "contracts/NFTMarket.sol",
  "abi": [
    {
      "inputs": [],
      "stateMutability": "nonpayable",
      "type": "constructor"
    },
    {
      "anonymous": false,
      "inputs": [
        {
          "indexed": true,
          "internalType": "uint256",
          "name": "itemId",
          "type": "uint256"
        },
        {
          "indexed": true,
          "internalType": "address",
          "name": "nftContract",
          "type": "address"
        },
        {
          "indexed": true,
          "internalType": "uint256",
          "name": "tokenId",
          "type": "uint256"
        },
        {
          "indexed": false,
          "internalType": "address",
          "name": "seller",
          "type": "address"
        },
        {
          "indexed": false,
          "internalType": "address",
          "name": "owner",
          "type": "address"
        },
        {
          "indexed": false,
          "internalType": "uint256",
          "name": "price",
          "type": "uint256"
        }
      ],
      "name": "MarketItemCreated",
      "type": "event"
    },
    {
      "inputs": [
        {
          "internalType": "address",
          "name": "nftContract",
          "type": "address"
        },
        {
          "internalType": "uint256",
          "name": "tokenId",
          "type": "uint256"
        },
        {
          "internalType": "uint256",
          "name": "price",
          "type": "uint256"
        }
      ],
      "name": "createMarketItem",
      "outputs": [],
      "stateMutability": "payable",
      "type": "function"
    },
    {
      "inputs": [
        {
          "internalType": "address",
          "name": "nftContract",
          "type": "address"
        },
        {
          "internalType": "uint256",
          "name": "itemId",
          "type": "uint256"
        }
      ],
      "name": "createMarketSale",
      "outputs": [],
      "stateMutability": "payable",
      "type": "function"
    },
    {
      "inputs": [
        {
          "internalType": "uint256",
          "name": "itemId",
          "type": "uint256"
        }
      ],
      "name": "fetchMarketItem",
      "outputs": [
        {
          "components": [
            {
              "internalType": "uint256",
              "name": "itemId",
              "type": "uint256"
            },
            {
              "internalType": "address",
              "name": "nftContract",
              "type": "address"
            },
            {
              "internalType": "uint256",
              "name": "tokenId",
              "type": "uint256"
            },
            {
              "internalType": "address payable",
              "name": "seller",
              "type": "address"
            },
            {
              "internalType": "address payable",
              "name": "owner",
              "type": "address"
            },
            {
              "internalType": "uint256",
              "name": "price",
              "type": "uint256"
            }
          ],
          "internalType": "struct PuppyNFTMarket.MarketItem",
          "name": "",
          "type": "tuple"
        }
      ],
      "stateMutability": "view",
      "type": "function"
    },
    {
      "inputs": [],
      "name": "fetchMarketItems",
      "outputs": [
        {
          "components": [
            {
              "internalType": "uint256",
              "name": "itemId",
              "type": "uint256"
            },
            {
              "internalType": "address",
              "name": "nftContract",
              "type": "address"
            },
            {
              "internalType": "uint256",
              "name": "tokenId",
              "type": "uint256"
            },
            {
              "internalType": "address payable",
              "name": "seller",
              "type": "address"
            },
            {
              "internalType": "address payable",
              "name": "owner",
              "type": "address"
            },
            {
              "internalType": "uint256",
              "name": "price",
              "type": "uint256"
            }
          ],
          "internalType": "struct PuppyNFTMarket.MarketItem[]",
          "name": "",
          "type": "tuple[]"
        }
      ],
      "stateMutability": "view",
      "type": "function"
    },
    {
      "inputs": [],
      "name": "fetchMyNFTs",
      "outputs": [
        {
          "components": [
            {
              "internalType": "uint256",
              "name": "itemId",
              "type": "uint256"
            },
            {
              "internalType": "address",
              "name": "nftContract",
              "type": "address"
            },
            {
              "internalType": "uint256",
              "name": "tokenId",
              "type": "uint256"
            },
            {
              "internalType": "address payable",
              "name": "seller",
              "type": "address"
            },
            {
              "internalType": "address payable",
              "name": "owner",
              "type": "address"
            },
            {
              "internalType": "uint256",
              "name": "price",
              "type": "uint256"
            }
          ],
          "internalType": "struct PuppyNFTMarket.MarketItem[]",
          "name": "",
          "type": "tuple[]"
        }
      ],
      "stateMutability": "view",
      "type": "function"
    },
    {
      "inputs": [
        {
          "internalType": "uint256",
          "name": "marketItemId",
          "type": "uint256"
        }
      ],
      "name": "getMarketItem",
      "outputs": [
        {
          "components": [
            {
              "internalType": "uint256",
              "name": "itemId",
              "type": "uint256"
            },
            {
              "internalType": "address",
              "name": "nftContract",
              "type": "address"
            },
            {
              "internalType": "uint256",
              "name": "tokenId",
              "type": "uint256"
            },
            {
              "internalType": "address payable",
              "name": "seller",
              "type": "address"
            },
            {
              "internalType": "address payable",
              "name": "owner",
              "type": "address"
            },
            {
              "internalType": "uint256",
              "name": "price",
              "type": "uint256"
            }
          ],
          "internalType": "struct PuppyNFTMarket.MarketItem",
          "name": "",
          "type": "tuple"
        }
      ],
      "stateMutability": "view",
      "type": "function"
    },
    {
      "inputs": [
        {
          "internalType": "string",
          "name": "DOMAIN_SALT",
          "type": "string"
        }
      ],
      "name": "uniqueIdentifier",
      "outputs": [
        {
          "internalType": "string",
          "name": "",
          "type": "string"
        }
      ],
      "stateMutability": "view",
      "type": "function"
    }
  ],
  "bytecode": "0x60806040526601c6bf5263400060045534801561001b57600080fd5b506001600055600380546001600160a01b03191633179055610cc8806100426000396000f3fe6080604052600436106100705760003560e01c806358eb2df51161004e57806358eb2df5146100e2578063721952e8146100f7578063c23b139e14610122578063c7be7a49146100b557610070565b80630f08efe014610075578063202e3740146100a05780632a45b250146100b5575b600080fd5b34801561008157600080fd5b5061008a610135565b6040516100979190610b67565b60405180910390f35b3480156100ac57600080fd5b5061008a6102e0565b3480156100c157600080fd5b506100d56100d0366004610b05565b6104c9565b6040516100979190610c08565b6100f56100f0366004610a29565b610539565b005b34801561010357600080fd5b50610115610112366004610a5b565b90565b6040516100979190610bb5565b6100f5610130366004610a00565b6107b3565b6060600061014260015490565b9050600061014f60025490565b60015461015c9190610c34565b90506000808267ffffffffffffffff81111561018857634e487b7160e01b600052604160045260246000fd5b6040519080825280602002602001820160405280156101c157816020015b6101ae610998565b8152602001906001900390816101a65790505b50905060005b848110156102d75760006005816101df846001610c1c565b81526020810191909152604001600020600401546001600160a01b031614156102c5576000600581610212846001610c1c565b81526020808201929092526040908101600090812054808252600580855291839020835160c0810185528154815260018201546001600160a01b0390811696820196909652600282015494810194909452600381015485166060850152600481015490941660808401529083015460a083015285519093508590879081106102aa57634e487b7160e01b600052603260045260246000fd5b60209081029190910101526102c0600186610c1c565b945050505b806102cf81610c4b565b9150506101c7565b50935050505090565b606060006102ed60015490565b905060008060005b8381101561035057336005600061030d846001610c1c565b81526020810191909152604001600020600401546001600160a01b0316141561033e5761033b600184610c1c565b92505b8061034881610c4b565b9150506102f5565b5060008267ffffffffffffffff81111561037a57634e487b7160e01b600052604160045260246000fd5b6040519080825280602002602001820160405280156103b357816020015b6103a0610998565b8152602001906001900390816103985790505b50905060005b848110156102d75733600560006103d1846001610c1c565b81526020810191909152604001600020600401546001600160a01b031614156104b7576000600581610404846001610c1c565b81526020808201929092526040908101600090812054808252600580855291839020835160c0810185528154815260018201546001600160a01b0390811696820196909652600282015494810194909452600381015485166060850152600481015490941660808401529083015460a0830152855190935085908790811061049c57634e487b7160e01b600052603260045260246000fd5b60209081029190910101526104b2600186610c1c565b945050505b806104c181610c4b565b9150506103b9565b6104d1610998565b50600081815260056020818152604092839020835160c0810185528154815260018201546001600160a01b039081169382019390935260028201549481019490945260038101548216606085015260048101549091166080840152015460a08201525b919050565b600260005414156105915760405162461bcd60e51b815260206004820152601f60248201527f5265656e7472616e637947756172643a207265656e7472616e742063616c6c0060448201526064015b60405180910390fd5b6002600055806105e35760405162461bcd60e51b815260206004820152601c60248201527f5072696365206d757374206265206174206c65617374203120776569000000006044820152606401610588565b60045434146106405760405162461bcd60e51b8152602060048201526024808201527f5072696365206d75737420626520657175616c20746f206c697374696e6720706044820152637269636560e01b6064820152608401610588565b61064e600180546001019055565b600061065960015490565b6040805160c0810182528281526001600160a01b0387811660208084018281528486018a8152336060870181815260006080890181815260a08a018e81528c8352600597889052918b902099518a55945160018a018054918a166001600160a01b0319928316179055935160028a015590516003890180549189169185169190911790559251600480890180549290981691909316179095559051949091019390935592516323b872dd60e01b81529182015230602482015260448101869052919250906323b872dd90606401600060405180830381600087803b15801561074057600080fd5b505af1158015610754573d6000803e3d6000fd5b505060408051338152600060208201529081018590528592506001600160a01b038716915083907f2ad024d53a0dc50c130967f8d4941927ee087ea31394cebb2b9599d3706c9c009060600160405180910390a4505060016000555050565b600260005414156108065760405162461bcd60e51b815260206004820152601f60248201527f5265656e7472616e637947756172643a207265656e7472616e742063616c6c006044820152606401610588565b60026000818155828152600560208190526040909120908101549101543482146108725760405162461bcd60e51b815260206004820152601f60248201527f506c65617365207375626d6974207468652061736b696e672070726963652e006044820152606401610588565b6000838152600560205260408082206003015490516001600160a01b03909116913480156108fc02929091818181858888f193505050501580156108ba573d6000803e3d6000fd5b506040516323b872dd60e01b8152306004820152336024820152604481018290526001600160a01b038516906323b872dd90606401600060405180830381600087803b15801561090957600080fd5b505af115801561091d573d6000803e3d6000fd5b505050600084815260056020526040902060040180546001600160a01b0319163317905550610950600280546001019055565b6003546004546040516001600160a01b039092169181156108fc0291906000818181858888f1935050505015801561098c573d6000803e3d6000fd5b50506001600055505050565b6040518060c001604052806000815260200160006001600160a01b031681526020016000815260200160006001600160a01b0316815260200160006001600160a01b03168152602001600081525090565b80356001600160a01b038116811461053457600080fd5b60008060408385031215610a12578182fd5b610a1b836109e9565b946020939093013593505050565b600080600060608486031215610a3d578081fd5b610a46846109e9565b95602085013595506040909401359392505050565b600060208284031215610a6c578081fd5b813567ffffffffffffffff80821115610a83578283fd5b818401915084601f830112610a96578283fd5b813581811115610aa857610aa8610c7c565b604051601f8201601f19908116603f01168101908382118183101715610ad057610ad0610c7c565b81604052828152876020848701011115610ae8578586fd5b826020860160208301379182016020019490945295945050505050565b600060208284031215610b16578081fd5b5035919050565b80518252602081015160018060a01b03808216602085015260408301516040850152806060840151166060850152806080840151166080850152505060a081015160a08301525050565b6020808252825182820181905260009190848201906040850190845b81811015610ba957610b96838551610b1d565b9284019260c09290920191600101610b83565b50909695505050505050565b6000602080835283518082850152825b81811015610be157858101830151858201604001528201610bc5565b81811115610bf25783604083870101525b50601f01601f1916929092016040019392505050565b60c08101610c168284610b1d565b92915050565b60008219821115610c2f57610c2f610c66565b500190565b600082821015610c4657610c46610c66565b500390565b6000600019821415610c5f57610c5f610c66565b5060010190565b634e487b7160e01b600052601160045260246000fd5b634e487b7160e01b600052604160045260246000fdfea26469706673582212207f4d543d62467b07e574ca3424f6d66a044238b0edef5b7eb78d3294a28dd7d764736f6c63430008030033",
  "linkReferences": {},
  "deployedLinkReferences": {}
}